:100000000C94F4030C9411040C9411040C94D1304E
:100010000C9411040C9411040C9411040C9411040C
:100020000C9411040C9411040C948A270C94462708
:100030000C9487280C9411040C9411040C94110452
:100040000C9411040C9411040C9411040C941104DC
:100050000C9411040C9463280C9411040C94110456
:100060000C9411040C9411040C9411040C941104BC
:100070000C9411040C9411040C9411040C941104AC
:100080000C9411040C9411040C9411040C9411049C
:100090000C9411040C9411040C9411040C9411048C
:1000A0000C9411040C9411040C9411040501090220
:1000B000A10185020901A1000509190129081500FE
:1000C0002501950875018102050109300931158165
:1000D000257F95027508810609381581257F9501D0
:1000E00075088106050C0A38021581257F95017572
:1000F000088106C0C005010980A101850319012AF4
:10010000B700150126B700950175108100C0050CD8
:100110000901A101850419012AA002150126A002E6
:10012000950175108100C005010906A1018506052C
:100130000719E029E71500250195087501810205D9
:1001400007190029EF1500250195F07501810205B9
:10015000081901290595057501910295017503910D
:1001600001C00660FF0961A1010962150026FF00B8
:100170009520750881020963150026FF00952075FA
:10018000089102C005010906A101050719E029E748
:1001900015002501950875018102950175088101F9
:1001A0000507190029FF150026FF0095067508812F
:1001B000000508190129059505750191029501753C
:1001C000039101C0FD377A585A000004E6D6B446C0
:1001D0000200210116000000742FE5A3E0042F01A6
:1001E000425D003D8889C65436C3174FE4DCCBB36B
:1001F000DF6320E7D71739D83D5F52C90BECB7E66C
:10020000D5195224B0736759B3E0B456C74788C9AB
:100210006520CF4A3C940C015E29865C8E1FD290EB
:100220001470DD8177B2096EB5F6AEE987F3FD6E25
:100230008628D433CFB875786A02A926DEE8E62589
:100240000BF2F12FEB95EF757127C27F9195E26369
:100250005AB0D245B872C0B554D7004EDE62BA204B
:1002600013945BD1FF5921584935658A11E5CA1AA3
:100270008401C66412A7BCC461E80A8B8F18149766
:100280002CD485C2CA11139D8194454D5141C1138F
:100290005A07F3F59C8A2EB089D73F3EF2C321104E
:1002A000C396AA6256BA70B31061455FB111971830
:1002B00036BB16666F7B478FC44223D0767E3FA73E
:1002C000ECEA0CBF2774C309BD093C35A8EED8AED3
:1002D000C7E9FF0F2F64DF72C5CDF6701A8177EC86
:1002E000EF634989711EFAEC985A059B0A0F6BC09F
:1002F000B382F93085B0A8A630E1DE91E0E101A437
:100300002FEECFFAB4CC09FA55E9DC3EB47823439A
:10031000F5F745FEAA6A7F620EBDEBFB2CF315BF15
:10032000380D4959E00000005614AADD3187545CAD
:100330000001DE02B0080000C0E5C082B1C467FB66
:10034000020000000004595A0001010101010101ED
:10035000010102020202020202020203030303037A
:100360000303030404040404040405050505050649
:100370000606060607070707070808080809090907
:10038000090A0A0A0B0B0B0C0C0C0D0D0D0E0E0EB0
:100390000F0F0F1010111111121213131414151541
:1003A00016161717181819191A1A1B1B1C1D1D1EB3
:1003B0001E1F202021222223242425262627282907
:1003C000292A2B2C2D2D2E2F303132323334353635
:1003D0003738393A3B3C3D3E3F4041424344454635
:1003E0004748494A4C4D4E4F505153545556585911
:1003F0005A5B5D5E5F616264656668696B6C6D6FB8
:100400007072737577787A7B7D7E8082838587882A
:100410008A8C8E8F91939596989A9C9EA0A2A3A564
:10042000A7A9ABADAFB1B3B5B7BABCBEC0C2C4C665
:10043000C9CBCDCFD1D4D6D8DBDDDFE2E4E7E9EB21
:10044000EEF0F3F5F8FAFDFF2B0014001A00080097
:1004500015001700E00004001600070009000A005C
:10046000E1001D001B00060019000500000000004F
:100470000000E300777C2C002A00130012000C001F
:1004800018001C00340033000F000E000D000B009C
:10049000290038003700360010001100000000006D
:1004A0000000E600787C28002B001E001F002000C2
:1004B00021002200E0000000000000000000000019
:1004C000E10000000000000000000000000000004B
:1004D0000000E30001002C002A0027002600250070
:1004E00024002300000000004F0052005100500083
:1004F00000000000000000000000000000000000FC
:100500000000E600010028002B001E021F0220024E
:1005100021022202E00000000000000000000000B4
:10052000E1000000000000000000000000000000EA
:100530000000E30001002C002A0027022602250209
:10054000240223023500310030002F002E002D0040
:100550003502310230022F022E022D02000000006F
:100560000000E60001002800007C00000000000000
:10057000000000002078237825782778000000000C
:1005800021782478267828780000000000000000F8
:100590000000E30001002C0000000000000000004B
:1005A000000000000000000000000000000000004B
:1005B000000000000000000000000000000000003B
:1005C0000000E60001002800007C000000000000A0
:1005D00000000000207823782578277800000000AC
:1005E0002178247826782878407E000000000000DA
:1005F0000000E30001002C000000000000000000EB
:1006000000000000000000000000000000000000EA
:1006100000000000000000000000000000000000DA
:100620000000E60001002800007C0000000000003F
:10063000000000002078237825782778000000004B
:100640002178247826782878000000000000000037
:100650000000E30001002C0000000000000000008A
:10066000000000000000000000000000000000008A
:10067000000000000000000000000000000000007A
:100680000000E6000100280009025B00030100A051
:10069000FA09040000010301010009211101000110
:1006A000224000070581030800010904010002033C
:1006B0000000000921110100012222000705820328
:1006C00020000107050303200001090402000103C3
:1006D00000000009211101000122B6000705840372
:1006E0002000011201000200000008534601000131
:1006F00000010203011C037600690061006C003AEE
:10070000006600360034006300320062003300638C
:100710000000000C0343006F0072006E00650000D3
:1007200000100366006F006F007300740061006EBC
:1007300000000004030904000000000000000000A5
:1007400000000000000000000000000000000000A9
:1007500000000000000000000000007E0F00D4FF39
:10076000FFFFC70000007800000000000000002A22
:100770002B28000000000000000000000000000026
:10078000000029000000002C1E34202122243426E1
:1007900027252E362D3738271E1F202122232425DA
:1007A000263333362E37381F0405060708090A0B8F
:1007B0000C0D0E0F101112131415161718191A1B01
:1007C0001C1D2F3130232D350405060708090A0B9F
:1007D0000C0D0E0F101112131415161718191A1BE1
:1007E0001C1D2F3130354C0011241FBECFEFDAE035
:1007F000DEBFCDBF11E0A0E0B1E0E2E1F7E602C06C
:1008000005900D92AE38B107D9F724E0AEE8B1E01B
:1008100001C01D92AD3AB207E1F70E94AE280C94D8
:1008200025330C940000482F2091AC049091730460
:1008300057E0291302C080E0089530E0529FF00194
:10084000539FF00D1124EC58FB4F8181681306C0B3
:100850008081481303C085818111EECF2F5F3F4F08
:100860002770E7CFFC01AC014C5F5F4F8FEF91E346
:100870002191822728E030E087FF09C0880F89276F
:1008800021503109C9F7E417F50791F70895880F4A
:10089000F7CFE8EDF0E080818E7F80831092E20058
:1008A0001092DA001092E100A0EEB0E08C9181602D
:1008B0008C9380818F77808319BCA7EDB0E08C91F9
:1008C0008E7F8C9380818F7E808310924404089564
:1008D0002091E4003091E50095E6A9012091EC001B
:1008E000822F817020FF06C08091E80080FF06C043
:1008F00080E008952091E80022FD1AC080916904EB
:10090000882389F0853089F08091EB0085FD0FC048
:100910002091E4003091E50042175307F9F291501D
:10092000E1F684E0089582E0089583E0089581E08F
:10093000089580916B0487FF13C08091E80082FFC7
:1009400006C08091E8008B778093E80004C0809116
:1009500069048111F2CF0895809169048823D9F345
:100960008091E80080FFF8CF8091E8008E77ECCF8F
:10097000982F9093E900242F762F50E0891731F0BB
:100980007091EC002091ED005091F00021FD07C026
:100990009F5F973071F78093E90081E0089530916F
:1009A000EB003E7F3093EB003091ED003D7F3093C4
:1009B000ED003091EB0031603093EB007093EC0070
:1009C0002093ED005093F0002091EE0027FDE0CF42
:1009D00080E00895B0E0A0E0E0EFF4E00C94F7319F
:1009E000C8EDD0E088818F7E8883E7EDF0E08081DC
:1009F0008160808384E082BF81E0809344048881A9
:100A00008E7F888302EE10E0F80110821092DA00E7
:100A100081EEC82ED12CF601108288818F778883D1
:100A200088818068888388818F7D888319BC109233
:100A3000690410926A04109268041092670490EEA0
:100A4000E92EF12CF70180818B7F80838881816082
:100A5000888342E060E080E00E94B804F601808173
:100A60008E7F8083F80180818160808380818860AF
:100A70008083F70180818E7F808388818061888375
:100A8000CDB7DEB7E8E00C941332FC01809171041D
:100A90009091720486179707A0F06115710529F4EB
:100AA0009091E8009E779093E80090E061157105C1
:100AB00051F4911108C08091E80082FF34C080E0B9
:100AC0000895BC01F2CF809169048823C1F185307B
:100AD000C1F18091E80083FD30C08091E80082FD83
:100AE000EACF8091E80080FFE1CF8091F300209170
:100AF000F200382F6115710519F02830310558F0D2
:100B000091E02830310509F090E02091E8002E773F
:100B10002093E800CBCF81918093F100615071095F
:100B20002F5F3F4FE7CF80916904882341F08530E4
:100B300041F08091E80083FFBECF81E0089582E01C
:100B4000089583E0089580914604089587E797E724
:100B5000909301088093000888E19AE00FB6F8941A
:100B6000A895809360000FBE90936000FFCF9C011A
:100B70004FB7F89480913E0490913F04A0914004B7
:100B8000B09141044FBF821B930B08952FB7F89487
:100B900060913E0470913F04809140049091410423
:100BA0002FBF08952FB7F89480913E0490913F0491
:100BB000A0914004B09141042FBF089520912F01CE
:100BC0002223C1F02091420427FF14C0E62FE695AE
:100BD000E695E695EE31F8F4E80FF92FF11D677010
:100BE00021E030E001C0220F6A95EAF78281822B72
:100BF00082830895FC0132962FEF30E04191641713
:100C000051F02F3F19F4411101C0232F3F5F3630BF
:100C1000A9F72F3F09F40895820F911D27FD9A959A
:100C2000FC0162830895A3E0B0E0E9E1F6E00C94F2
:100C3000FD3120913B0430913C0428173907A1F085
:100C400090933C0480933B04E0913904F0913A0482
:100C5000309751F024E029839B838A830680F781B3
:100C6000E02DCE01019609952396E2E00C9419320D
:100C7000A3E0B0E0EEE3F6E00C94FD312091370400
:100C80003091380428173907A1F0909338048093E5
:100C90003704E0913904F0913A04309751F023E0A1
:100CA00029839B838A830680F781E02DCE010196FC
:100CB00009952396E2E00C941932CF93DF93EC016F
:100CC00040912504509126046091270470912804D6
:100CD0002FB7F89480913E0490913F04A091400476
:100CE000B09141042FBF841B950BA60BB70B843F1B
:100CF0009140A105B10518F5809125049091260435
:100D0000A0912704B0912804809321049093220499
:100D1000A0932304B093240484EF91E0A0E0B0E01A
:100D200080931D0490931E04A0931F04B09320048D
:100D3000D0932D04C0932C04DF91CF9108950E948D
:100D4000C60560932104709322048093230490933A
:100D5000240482E390E0A0E0B0E0E2CFFC018481D3
:100D6000862351F492819923B9F06923808583FF0A
:100D700005C081E061110FC080E00895892F8F7058
:100D800092959F70982B862F8F7062956F70682B4D
:100D900081E09613F1CF089581E0FDCFE0E2F3E02A
:100DA00090E080E066E073E24DE253E228E832E250
:100DB0007783668351874087338722879587848727
:100DC00001963E968830910599F7089581152CE794
:100DD000920741F420911B0430911C04232B11F441
:100DE00090E080E00895FA01811101C0FB010995AE
:100DF000089580910403982F9E7F71F480910403DD
:100E0000817082608093040380910703893718F012
:100E100088E7809307030895843080F7F5CF0E9418
:100E2000D2059C0190915B0280915C02982B21F08D
:100E3000309358022093570290915D0280915E0298
:100E4000982B21F03093560220935502E0913904FB
:100E5000F0913A04309749F082E08093590204807F
:100E6000F581E02D89E592E009950895809154027D
:100E700080FD16C081FD16C082FD16C08091530210
:100E80008823A1F0883280F428E0829FC0011124D9
:100E900068E270E00E943832862F672B39F008959F
:100EA00082E0089584E0089588E0089581E008953F
:100EB0008091540280FD16C081FD12C082FD14C0D5
:100EC00080915202882371F08E3170F420E2829F6B
:100ED000C00111246EE170E00E943832862F08951F
:100EE00080E1089588E0089580E2089580E0089503
:100EF000F894E82FE295EF70F0E031A1282F2F70E1
:100F000081E090E001C0880F2A95EAF7982F90952C
:100F1000932391A392A1892B82A378940895909111
:100F2000420492FF06C0282F28712830F9F4877FE9
:100F3000846093FF06C0282F28712831F1F4877E42
:100F400084612091430420FF06C0382F3871383067
:100F5000D9F4877F816021FF06C0282F28712831AE
:100F6000D1F4877E816194FD877E0895282F2471B6
:100F70002430F9F68B7F8860DCCF282F2471243150
:100F800001F78B7E8861DDCF382F3171313019F751
:100F90008E7F8860E0CF282F2171213121F78E7E4E
:100FA0008861E1CF82389105B9F1B0F481339105C0
:100FB00009F47DC048F48932910509F46DC08A3284
:100FC000910509F47BC008958533910509F45FC04C
:100FD0008933910509F10895833E9105D9F138F4DB
:100FE000803E910529F1823E910579F10895863E72
:100FF0009105D9F1873E910509F43EC0843E9105E3
:1010000041F52091430421FF24C08091420484FDD6
:1010100019C087EE90E0089520914204237009F0F2
:101020005AC02091430423FF14C089E290E0089540
:101030002091420420FD38C03091430430FF09C0A4
:1010400024FF43C090E080E008952091420422FDF7
:10105000F7CF08952091420422FD3AC03091430415
:1010600030FD39C024FFF5CFEDCF2091420423FF9E
:10107000F0CF24FDE7CFCDCF2091420423FD2EC039
:101080003091430431FFEECF84EE90E0089520913B
:10109000420425FFDECFC9CF2091420425FD21C0A7
:1010A0002091430423FFD5CF89E390E0D2CF209154
:1010B000420426FFCECF8AE290E0089520914204B8
:1010C00026FFC7CF81E390E0089583EE90E0089576
:1010D00082EE90E0089580EE90E0089586EE90E034
:1010E000089585E390E008951F93CF93DF930E94C6
:1010F000D207EC01C11580E5D807F0F5C11580E4F1
:10110000D80708F09CC0C03ED10520F5CD3CD105E4
:1011100008F082C0C83AD10578F4C53AD10508F084
:1011200073C0C130D10519F1209709F1C430D10540
:10113000F0F4D0E0C0E01BC0C33CD105D0F7C85AE2
:10114000D0E0CC0FDD1FC55CDE4F0990D881C02DEB
:10115000D4640DC0C11580E2D80708F0D1C0C11514
:1011600081E0D80708F05AC0C83ED10510F7CE017B
:10117000DF91CF911F910895C03682E5D80718F509
:10118000C03482E5D80708F06BC0C03282E5D807CA
:1011900008F05FC0C11582E5D80708F497C02C2F6E
:1011A0002695269580E2289F900111248C2F83702C
:1011B000C1E0D0E002C0CC0FDD1F8A95E2F7C22B60
:1011C000D32BDD68D4CFC03A82E5D80760F4C038AD
:1011D00082E5D80708F459C0CF71D0E0DC2FCC27C6
:1011E000C46FD06AC4CFC03C82E5D80708F462C09F
:1011F000C03E82E5D80708F09CCFDC2FCC27CC2757
:10120000DF71C06FD06AB3CFC55AD0E0C85CDE4F83
:10121000C881D0E0D064ABCFD065A9CF8D2F0E941C
:101220008F07182FCE0199270E94D207C12FD0E037
:10123000DC2FCC27CC27DF71C82BD92B98CFCE0140
:1012400099270E94D207CC27DF70C82BD92BD06AF0
:101250008ECFCF71D0E0DC2FCC27C16FD06A87CF83
:101260002C2F26952695277080E2289F9001112427
:101270008C2F8370C1E0D0E002C0CC0FDD1F8A95B7
:10128000E2F7C22BD32BDC6872CF2C2F2695269544
:10129000277080E2289F900111248C2F8370C1E079
:1012A000D0E002C0CC0FDD1F8A95E2F7C22BD32B12
:1012B000DA685DCF8C2F8F710E948F07C82FD0E026
:1012C000DC2FCC27CC27DF71D06251CF8C2F8F71D0
:1012D0000E948F0755E0D695C7955A95E1F7CF70D4
:1012E000D0E0DC2FCC27282F30E084FF05C044E07D
:1012F000220F331F4A95E1F7C22BD32BD06937CF8A
:101300008D2F8F710E948F07182FCE0199270E9471
:10131000D207C12FD0E0DC2FCC27CC27DF71C82B20
:10132000D92BD2CF8091F401882331F01092F401AF
:101330001092F3011092F20108959091F401292F77
:10134000282361F0809589238093F401882339F064
:101350000E94D2059093F3018093F201089590E0EA
:1013600080E0F8CF809590913304982390933304D4
:1013700008958095909134049823909334040895AF
:101380001092D1011092D0011092CF010895909146
:10139000CE01292F282321F0809589238093CE0127
:1013A000089590912F019923D1F09091420497FFD5
:1013B00016C0E82FE695E695E695EE31E0F4F0E00C
:1013C000E057FE4F282F277081E090E001C0880F82
:1013D0002A95EAF780959281892382830895E2E92C
:1013E000F1E09191891303C0DF0111971C9291E004
:1013F000E839F907B1F708958091AC04909173042E
:10140000981301C008958F5F8770FACF292F983005
:1014100078F5863068F590E036E0239F800D911DC9
:101420001124682F677023E0969587952A95E1F738
:10143000FC01EE0FFF1FE80FF91FEB54FE4F50E0C9
:1014400040E080E0219130E0062E02C036952795DD
:101450000A94E2F721703327042E01C0220F0A9468
:10146000EAF7822B4F5F5F4F4330510559F70895DC
:1014700080E00895292F983098F5863088F590E01F
:1014800036E0239F800D911D1124282F277041E005
:1014900001C0440F2A95EAF723E0969587952A958F
:1014A000E1F7FC01EE0FFF1FE80FF91FEB54FE4FB1
:1014B00030E020E070E05191DF011197CB01022E66
:1014C00002C0969587950A94E2F7817081958527E9
:1014D000842385278C932F5F3F4F2330310559F7A5
:1014E00008958093360208959091360221E030E00D
:1014F000F90101C0EE0F8A95EAF7D90102C0AA0FDF
:10150000BB1F6A95E2F7EA2B01C0220F4A95EAF762
:10151000892F8E23E81305C0292B822F0E94710A80
:10152000089520952923F9CF21E030E001C0220F52
:101530008A95EAF720958091360282230E94710AEB
:1015400008959091D101809589238093D101282F0E
:10155000277069F4891759F09091430492FF07C0EE
:101560008695869586950E94940A0E94C0090895E2
:1015700021E030E001C0220F8A95EAF7809136021F
:10158000822B0E94710A08959091430492FF10C02B
:1015900098E0899F90011124622B6093D1010E94F1
:1015A000B80A0E94D2059093D0018093CF0108958C
:1015B0000E94B80A08958093F5010895662309F4FE
:1015C0005DC08D3C41F40E945807819580935C0278
:1015D0000E940F0708958E3C19F40E945807F6CF19
:1015E0008F3C31F40E945807819580935B02F0CFC5
:1015F000803D19F40E945807F8CF893D29F40E94D4
:10160000360780935D02E4CF8A3D21F40E943607BD
:101610008195F7CF8B3D31F40E94360781958093F9
:101620005E02D6CF8C3D19F40E943607F8CF9FE2B8
:10163000980F983070F4815D990B21E030E001C083
:10164000220F8A95EAF780915A02822B80935A02E0
:10165000BFCF8D3D31F4809154028160809354025C
:10166000B7CF8E3D21F4809154028260F7CF8F3D39
:1016700009F0AECF809154028460F0CF40915B02BC
:101680008D3C59F480915C0287FF0DC010925C0282
:1016900041110BC01092520208C08E3C81F480911F
:1016A0005C0218169CF3442381F080915D029091B6
:1016B0005E02892B09F08CCF1092530289CF8F3CA8
:1016C00049F447FFF0CF10925B0280915C028111D8
:1016D000ECCFE0CF803D19F41416ACF3E4CF909139
:1016E0005D02893D29F41916F4F610925D02DBCFF4
:1016F0008A3D19F497FFD7CFF8CF90915E028B3DCA
:1017000029F497FFD0CF10925E02CDCF8C3D19F413
:101710001916CCF3C8CF9FE2980F983090F4815DF2
:10172000990B21E030E0B90102C0660F771F8A955E
:10173000E2F7CB01809590915A02892380935A0257
:10174000B2CF8D3D31F4809154028E7F809354024C
:10175000AACF8E3D21F4809154028D7FF7CF8F3D2B
:1017600009F0A1CF809154028B7FF0CF9C013A9574
:1017700021153F4150F5FC01EE27F170BC016627B1
:101780007270AC01442754709C012227387094FF7A
:101790000EC080E1EF2B09F480E0672B09F0806236
:1017A000452B09F08064232B89F08068089581E03F
:1017B000EF2B09F480E0672B09F08260452B09F0DC
:1017C0008460232B19F08860089580E008950F93BA
:1017D0001F93CF93DF938B01EA01909169049430BA
:1017E00061F58093E9008FEF9091E800815095FDBD
:1017F00006C095ED9A95F1F700008111F5CF809123
:10180000E80085FF1AC00E946804811111C0809110
:10181000E80085FD06C08091E8008E778093E8009F
:10182000F2CFF80181918F018093F100219779F730
:101830008091E8008E778093E800DF91CF911F912F
:101840000F91089543E050E0BC0184E00E94E70B53
:10185000089546E050E0BC0184E00E94E70B089543
:10186000CF93DF93EC0180912F01811111C048E0EB
:1018700050E0BE0181E00E94E70B80E2FE01A7E498
:10188000B4E001900D928A95E1F7DF91CF91089530
:101890008091420487FF05C040E284E050E0BE0131
:1018A000EACF48E081E0FACF60912B0180910403F8
:1018B00080FF20C080912A0143E0849FC001112451
:1018C0008E599D4F539A2BB1277F3BB138605FB73C
:1018D000F894FC01649FE00DF11D1124BF0168170D
:1018E0007907D1F45FBF8FE594E00197F1F700C06D
:1018F0000000089580912C0190912D0123E0829F9A
:10190000F0011124EE59FD4F8917A0F611821082C3
:1019100012828F5F3396F8CFFC014191CF01E8E04E
:101920003BB9000000C047FF2BB9440F000000C0C6
:1019300000C000C02BB900C0EA9591F7D0CFB0E04D
:10194000A0E0E5EAFCE00C94F5317C015B016A0162
:101950008091270201E010E08A3010F40AE010E0E4
:10196000C1E0D0E0B501C701F6010995811104C0BD
:1019700021960C171D072CF4CDB7DEB7EAE00C94C6
:101980001132CC9F9001CD9F300D300D112490E08D
:1019900080E045E34A95F1F700000196821793072E
:1019A000C1F7E0CF80910202811110C08091D80070
:1019B00080618093D8008AE18A95F1F700C0809118
:1019C000D90080FF0AC081E08093020281E09091FB
:1019D0000202913009F080E0089582E080930202D3
:1019E0000E94490410926904F1CF0E94D20C88230E
:1019F00059F0E0913904F0913A04309729F00190C0
:101A0000F081E02D0995089580E008950F931F93CC
:101A10000E94D20C882329F00E94C6051F910F91C5
:101A200008950E94C6050091280210912902209174
:101A30002A0230912B02600F711F821F931FEECF7D
:101A4000CF93DF93C9E0D3E060E0CE010E94E9329A
:101A50002196C11584E0D807B9F7DF91CF91089599
:101A60001F93CF93DF93122F8630E0F46830D0F4C9
:101A70004630C0F4C42FD0E0CC0FDD1F9CE0699F3E
:101A8000C00DD11D112490E6899FC00DD11D1124D8
:101A9000632FCE0189960E94E932612FCE018A968A
:101AA0000E94E932DF91CF911F910895CF93C82F03
:101AB0006FEF811169E285E290E00E94E9326FEFF9
:101AC000C1116AE686E290E00E94E9326FEFC1112F
:101AD0006BE587E290E00E94E932CF910895A4E19E
:101AE000B0E0E5E7FDE00C94F231A0901B04B0906B
:101AF0001C0481E090E090931C0480931B0488E414
:101B0000C82E84E0D82E00E0760110E015C0F40164
:101B100025913491472D612F802F0E94300D82E056
:101B2000880E911C7394E6E07E12F1CFFCE0EF0E7C
:101B3000F11C1F5F183019F04701712CE8CF0F5FBF
:101B400080E6C80ED11C0630F9F61A8219821C8272
:101B50001B821E821D8218861F8284EB90E09A876A
:101B6000898709E612E04AE050E0B801CE0101960B
:101B70000E940D33065F1F4F093BE2E01E0799F7F5
:101B80007E01FBE0EF0EF11C8AE0F70111928A95CD
:101B9000E9F78FEF9FEF988B8F8787E08C8B4AE078
:101BA00050E0B801C7010E940D33065F1F4F093096
:101BB000F3E01F07A1F7B0921C04A0921B046496E7
:101BC000EDE00C940E3280E00E94560D60E088E259
:101BD00090E00E94E9320E946F0D0E94200D81E08A
:101BE0000E94560D08959B01883070F49AE0899FF9
:101BF000B001112467597D4F4AE050E0C9010E94AD
:101C0000B53290E080E008958FEF9FEF0895AAE04D
:101C1000B0E0EDE0FEE00C94FD319C0137552F3F24
:101C2000310509F068F4BE016F5F7F4F0E94F30D2C
:101C3000892B31F489859A852A96E2E00C94193231
:101C400084EB90E0F9CF0F931F93CF93DF9386300F
:101C500030F5683020F5463010F5C42FD0E0CC0FB9
:101C6000DD1F2CE0629FC00DD11D112430E6839F43
:101C7000C00DD11D1124CE0189960E94C532082FB6
:101C800010E0102F0027CE018A960E94C5329801DD
:101C9000282BC901DF91CF911F910F91089590E0FA
:101CA00080E0F8CF462F2091500230915102232B33
:101CB00099F4703F39F4603F79F480910C0390916E
:101CC0000D030895783040F4663030F4863020F407
:101CD000672F0E94230E089590E080E00895CF9230
:101CE000DF92FF920F931F93CF93DF936C010091CC
:101CF00036028091F501082BC5E0D0E010E0FC2E03
:101D0000C8010C2E02C0959587950A94E2F780FDD4
:101D10000CC02197A0F7F12C8F2DDF91CF911F914F
:101D20000F91FF90DF90CF900895B6018C2F0E9405
:101D3000520E0E947408019761F3EECFCF93DF93A8
:101D4000EC010E946F0EBE010E94520E0E947408A8
:101D5000DF91CF910895FC0124812223C1F080817D
:101D600091810E949E0E92959F70963091F058F44A
:101D7000925F9F70923058F4803F19F030F4883EA3
:101D800030F481E008959A5FF4CF843FD1F380E08E
:101D90000895883EB0F3813FD1F7F3CFA6E0B0E0DD
:101DA000E4EDFEE00C94FC3126E0FC01DE0111962E
:101DB00001900D922A95E1F7FC01258189819A8194
:101DC000222399F0662389F00E946F0E182F682F46
:101DD00089819A810E943A0A69817A81812F0E94C1
:101DE000520E2696E3E00C9418320E94060A182F31
:101DF000F3CF85E290E00E94C532893289F486E211
:101E000090E00E94C5328A3659F487E290E00E9441
:101E1000C53291E08B3509F090E0892F81700895EB
:101E200080E0FCCFAAE0B0E0E8E1FFE00C94F33101
:101E300003EA13E081E9C82E83E0D82E99EBE92E5E
:101E400092E0F92E27E0922E30E9A32E33E0B32E54
:101E500088248394D6010D931D936D014AE050E0D0
:101E6000B701CE0101960E94B532F8013896DF0124
:101E7000892D1D928A95E9F789819A81D801119659
:101E80009C938E938F8112968C9312978D811396CB
:101E90008C931397888514968C931497898515963F
:101EA0008C9315978B819C8117969C938E93169794
:101EB00018961C9218978A8587FF3CC01E961C9224
:101EC0001E921D9780FF03C0D80118968C9281FF47
:101ED00004C0F80190859260908782FF07C0D80106
:101EE00018969C911897946018969C9383FF04C051
:101EF000F80190859860908784FF07C0D8011896F4
:101F00009C911897906118969C9385FF04C0F801E6
:101F1000808580628087015F1F4FFAE0EF0EF11C21
:101F200089E0E81683E0F80609F094CF2A96ECE001
:101F30000C940F32F801B686A586C4CFB0E0A0E0BD
:101F4000E4EAFFE00C94F33149015A016B017C0192
:101F50000E94F9068401A4016A2D7B2D88E090E09F
:101F60000E94FB3294014A2D5B2DB601C70100E2AD
:101F70000E947432622F84E290E00E94E932CDB771
:101F8000DEB7ECE00C940F32B0E0A0E0EAECFFE04A
:101F90000C94F331182FC62FD42F822E00910403F6
:101FA00000FF50C080910503811308C08091060393
:101FB000861304C080910703841729F08091610281
:101FC000826080936102E02FE695F0E0E358FE4FD7
:101FD000808180935F02802F8E7F8230E9F4ED2F25
:101FE000D93708F0E8E7F0E0E85BFC4FC1112FC0FB
:101FF0002491F22FE22F00FF0FC080912C019091CD
:102000002D0133E0839FD0011124AE59BD4F8917B4
:1020100008F492C00E94540C10930503C093060369
:10202000D0930703882071F0209104036091080386
:1020300070910903312FAE0180910A0390910B0337
:102040000E949E0FCDB7DEB7ECE00C940F32EC2E61
:10205000F12CE4919E2ECE2ED12C26E0129FC001B1
:1020600011242FEF30E0B9010E942432812F90E03B
:10207000880F991FF5E5F69FA001F79F500D1124D9
:10208000841B950BB82EBB0CB80EA9014E195F0925
:102090004C9DC0014D9D900D5C9D900D1124F92F1C
:1020A000CB9DA0011124452F5527D901A41BB50BA9
:1020B000AC9DA001AD9D500DBC9D500D1124D901CA
:1020C000AB19B1095D01AE9CD001AF9CB00DBE9CB7
:1020D000B00D1124AB2FBB272A1B3B0B2C9DD0012D
:1020E0002D9DB00D3C9DB00D11242B2F623071053C
:1020F000A1F050F46115710509F47DCF61307105CF
:1021000081F0292FF52F77CF6430710569F080F0C9
:102110006630710509F46FCFF4CF2E2FE92FFB2F16
:102120006ACF2E2FE52F67CF292FFE2FEB2F63CFFE
:10213000E92FF92D252F5FCF1196EC9311972C9352
:102140001296FC9312978F5F139661CFE4E0F3E051
:10215000438121E1421B08F440E021E0628181815A
:102160000E94C40F0895E4E0F3E0438121E1420FAF
:1021700008F44FEF21E0628181810E94C40F08952D
:10218000E4E0F3E0628121E1621B08F460E021E019
:10219000438181810E94C40F0895E4E0F3E06281ED
:1021A00021E1620F08F46FEF21E0438181810E94F9
:1021B000C40F0895E4E0F3E0818121E0438162816E
:1021C0008A500E94C40F0895E4E0F3E0818121E089
:1021D00043816281865F0E94C40F08958091080345
:1021E000882319F0815080930803209104033091D3
:1021F0000503409106035091070360910803709115
:10220000090380910A0390910B030E949E0F089589
:1022100080910803833018F48F5F80930803209126
:102220000403309105034091060350910703609128
:1022300008037091090380910A0390910B030E9497
:102240009E0F08952091040320FF24C02170226076
:102250002093040380916102816080936102662370
:1022600081F030910503409106035091070360917E
:1022700008037091090380910A0390910B030E9457
:102280009E0F20E0409107036091060380910503B3
:102290000E94C40F0895809104038695815009F42B
:1022A00081E061E00E942211089561E081E00E94D6
:1022B00022110895E4E0F3E083E0808311828FEF40
:1022C000828388E783831482AFE5B2E012968C9113
:1022D0001297836012968C93758123E030E04FEF64
:1022E00058E760E0868197810E949E0F0895CF9302
:1022F0008091340490913304892B809390018091D4
:10230000F401882339F10E94D2052091F201309125
:10231000F301821B930B8838934110F00E949209BD
:10232000809190019091F401892B8093900180918C
:102330002F01882309F447C08091420487FF43C0DE
:102340008EE1E2E9F1E090E0815008F03EC09111A9
:102350000E949209C0912904C09580919001C823E0
:1023600080912A04C82BC093900140E250E062EDB6
:1023700071E080E991E00E949832892B11F180E2AE
:10238000E0E9F1E0A2EDB1E001900D928A95E1F76C
:10239000E0913904F0913A04309799F080912F013F
:1023A000882349F08091420487FF05C0C0939101C2
:1023B00086E0809390010280F381E02D80E991E036
:1023C0000995CF91089586E0BCCF2191222309F48D
:1023D000BBCF9F5FB9CFCF93DF93EC01EA85FB853D
:1023E000309719F06C857D8509958B810E94B20923
:1023F0008C810E94B9090E94771186E0FE0111923A
:102400008A95E9F7DF91CF910895CF93DF93EC019F
:102410008D8181FD18C082608D83809133049B8102
:10242000892B80933304809134049C81892B809381
:1024300034040E947711E885F985309721F06C8586
:102440007D85CE01099510923604109235048D8158
:1024500080FD03C0CE010E94EB11DF91CF91089562
:102460001092340480912F01E2E9F1E0882329F1F0
:102470008091420487FF21C08EE1DF011D928A9581
:10248000E9F790E080E00E94380690E080E00E944A
:102490001306109233040E94771186E0E9E5F2E01A
:1024A000DF011D928A95E9F71092520210925302B1
:1024B000109254020E940F07089586E0DECFAAE230
:1024C000B0E0E5E6F2E10C94FC318BE694E020917B
:1024D000F100DC012D93CD01B4E083379B07B9F700
:1024E00080916C04833009F472C0B8F4813009F42F
:1024F00049C0823009F4B3C08091E80083FF96C2DE
:1025000080916B0490916C049A3008F08FC2E92F8F
:10251000F0E0E95DFC4C0C944C328A3009F48EC03A
:102520008B3009F471C0893039F780916B048132A6
:1025300019F780916F0490917004009711F0029741
:10254000D9F68091E800877F8093E8008091E800C9
:1025500082FF38C09091F3008091F200029731F42D
:102560008091F100813011F0863021F48091F100EA
:10257000809346048091E8008B778093E8000E9466
:102580009904BACF80916B04813A09F0B5CF80915C
:10259000E800877F8093E80080916F049091700439
:1025A000892B61F460E287E494E070E00E944505C5
:1025B0008091E8008B778093E8009ECF60E090E008
:1025C00080E0F3CF809169048111C0CF95CF8091D5
:1025D0006B04813A09F090CF80916F049091700460
:1025E000892B09F089CF8091E800877F8093E800EC
:1025F0008091E80080FFFCCF80912F018093F10053
:102600008091E8008E77B9CF80916B04813209F018
:1026100073CF80916F0490917004892B09F06CCF77
:102620008091E800877F8093E8000E949904809160
:102630006D0480932F010E9430125ECF80916B0455
:10264000813209F059CF8091E800877F8093E800BC
:102650000E94990480916E04809345044DCF80912F
:102660006B04813A09F048CF8091E800877F80931E
:10267000E8008091E80080FFFCCF80914504BECF48
:10268000803899F0823809F0D1C180916F048F7041
:10269000873008F0CBC18093E9008091EB0085FB87
:1026A000882780F91092E90006C080916704909114
:1026B0006804911182609091E800977F9093E80000
:1026C0008093F1001092F1008091E8008E77AAC10A
:1026D000882309F498C1823009F0A8C180916D0463
:1026E00081119BC180916F048F702FEF280F2630CE
:1026F00008F09CC18093E9002091EB0020FF8DC180
:10270000933031F48091EB0080628093EB0085C1BF
:102710009091EB0090619093EB0021E030E001C0DC
:10272000220F8A95EAF72093EA001092EA0080913E
:10273000EB008860EACF811179C110916D041F7799
:102740008091E3008078812B8093E3008091E80002
:10275000877F8093E8000E9499048091E80080FFC1
:10276000FCCF8091E30080688093E30082E0111148
:1027700083E0809369045AC18058823008F056C1C2
:1027800020916D0430916E042C3DE3E03E07A1F5ED
:1027900083E08A838AE289834FB7F894DE01139637
:1027A00020E03EE051E2E32FF0E050935700E49147
:1027B00020FF03C0E295EF703F5FEF708E2F90E037
:1027C000EA30C0F0C7968D939D932F5F243159F75F
:1027D0004FBF8091E800877F8093E8006AE270E055
:1027E000CE0101960E9445058091E8008B77809389
:1027F000E8001CC1C096E7CF80916F0490917004EF
:10280000432F55274330510509F44AC078F541302C
:10281000510509F485C08BE590E0E8E8F6E0423028
:10282000510509F003C12091E800277F2093E800BB
:1028300020917104309172048217930708F49C016F
:1028400040E02115310509F070C041116EC0809142
:10285000E80082FDC9CF80916904882329F2853080
:1028600019F28091E80083FFF2CFBECF41325105CB
:1028700009F447C04232510509F0D8C083309105B0
:1028800008F0D4C0FC01EE0FFF1FEE57FE4F019081
:10289000F081E02D81589E4FDC018C9190E01DC0AD
:1028A000332721303105E9F02115310579F0223047
:1028B0003105F9F02330310509F0B8C0E5EFF6E055
:1028C000E4918E2F90E0E5EFF6E007C0E3E3F7E058
:1028D000E4918E2F90E0E3E3F7E0009709F4A6C0BF
:1028E000A2CFE1E2F7E0E4918E2F90E0E1E2F7E0A1
:1028F000F4CFE3E1F7E0E4918E2F90E0E3E1F7E03D
:10290000ECCF8330910508F091C0880F991FFC012E
:10291000E857FE4F0190F081E02D89E090E083CFF1
:1029200082E190E0E3EEF6E07ECF809169048823B7
:1029300009F45ACF853009F457CF8091E80083FD20
:1029400053CF8091E80082FD82CF8091E80080FF24
:1029500078CF9091F3008091F2002115310519F0A4
:102960008830910550F041E0089709F040E08091EF
:10297000E8008E778093E80064CF44914093F100A3
:102980003196215031090196E8CF803809F04EC0C8
:102990008091E800877F8093E80080916A048093AB
:1029A000F10092CE811142C010916D041230F0F509
:1029B0008091E800877F8093E80010936A040E946A
:1029C0009904112311F084E005C08091E30087FD94
:1029D000FACF81E08093690442E061EC81E00E94DB
:1029E000B80442E261EC84E00E94B80442E261EC87
:1029F00082E00E94B80442E260EC83E00E94B804E6
:102A00008091690413C080916D04813079F481E074
:102A1000933009F080E0809368041092E90080917F
:102A2000E800877F8093E8000E9499048091E80085
:102A300083FF0AC08091E800877F8093E80080913F
:102A4000EB0080628093EB00AA96E3E00C941832CE
:102A50000E9430122FEF84E39CE021508040904090
:102A6000E1F700C0000088E19AE00FB6F894A8955D
:102A7000809360000FBE90936000FFCF882321F009
:102A80000E94B2090E9477110895882339F090912D
:102A90003304982B909333040E9477110895882370
:102AA00021F00E94B9090E9477110895882339F016
:102AB00090913404982B909334040E9477110895D8
:102AC000882381F19CEF980F913A28F40E94D10954
:102AD0000E947711089590E2980F983050F4877013
:102AE00091E001C0990F8A95EAF7892F0E94B909F0
:102AF000EFCF9BE5980F933028F490E080E00E94A0
:102B00003806089598E5980F9B3128F490E080E00E
:102B10000E941306089593E3980F933118F460E030
:102B20000E94DE0A0895FF920F931F93CF93DF93C5
:102B3000F82E00912E0410912F040115110509F4AF
:102B400049C010922D0410922C0410922904109266
:102B50002A04D8011696CD91DC919E013A95211553
:102B60003F4108F4D07ED1E0C11101C0D0E0D801CE
:102B70001996ED91FC911A97309731F01B966D9153
:102B80007C9180E00995D823DD2339F08CEF8C0F00
:102B9000813A30F58C2F0E94D109FF2099F0E09105
:102BA0002E04F0912F04808584FD0CC080912B04AD
:102BB000882341F0808191819C01215031092F337C
:102BC0003E47A0F00E94771110922F0410922E041D
:102BD00010922B04C801CDB7DEB7E5E00C94163295
:102BE0000E9477118C2F0E946015D7CF0E945D063E
:102BF000E9CFCF93C82F8823C1F18CEF8C0F813A96
:102C0000B0F580912F01882301F18091420487FF64
:102C10001CC0EC2FE695E695E695F0E0E057FE4FF8
:102C2000828190E04C2F477021E030E002C0220FFB
:102C3000331F4A95E2F782239323892B79F08C2F57
:102C40000E94D1090E94771109C0E2E9F1E0819167
:102C5000C817A9F381E0E839F807C9F76C2F80E9B4
:102C600091E00E94DE050E947711CF91089580E2E5
:102C70008C0F883068F4C77021E030E001C0220F6B
:102C8000CA95EAF780913404822B80933404EBCF09
:102C9000EBE5EC0FE33040F4F0E0E85CFE4F8081C0
:102CA00090E00E943806E1CFE8E5EC0FEB3150F4FC
:102CB000F0E0EE0FFF1FE55CFE4F808191810E94E6
:102CC0001306D3CF83E38C0F833178F661E08C2F2A
:102CD0000E94DE0ACACF1F93CF93DF93182FD0E054
:102CE000C0E0893311F4C0E5D0E0812F0E94F915CE
:102CF000209739F4812F0E946015DF91CF911F91A9
:102D000008958FE99FE00197F1F700C00000219737
:102D1000EFCFB0E0A0E0EFE8F6E10C94F531EC0184
:102D20008AE0A82E2881222309F48FC02130C9F51A
:102D300099818A81913021F422960E946B1605C0F8
:102D4000923029F422960E94F9152196EBCF933008
:102D500021F422960E946015F8CF943011F021964C
:102D6000F4CF229630E020E0AE014F5F5F4F8053FA
:102D7000990B8A30910550F02150310930F38FE9D9
:102D80009FE00197F1F700C00000F6CFA29EB001CE
:102D9000A39E700D11249C01260F371F8981EA0123
:102DA000E3CFE22FF0E0E959F84FB490822F8695F7
:102DB0008695869590E0FC01E95AF84FE4902770DB
:102DC000F12C022E02C0F594E7940A94E2F731E068
:102DD000E322FF24FC01E95BF84FC490D12C022EC2
:102DE00002C0D594C7940A94E2F731E0C322DD24EF
:102DF000FC01E95CF84F049110E002C015950795BD
:102E00002A95E2F701701127E114F10419F081EE1F
:102E10000E94F915C114D10419F086EE0E94F9152B
:102E20008B2D0E946B16C114D10419F086EE0E94FE
:102E30006015E114F10419F081EE0E94601501158E
:102E4000110509F482CF8CE278CFCDB7DEB7EAE086
:102E50000C941132B0E0A0E0E0E3F7E10C94F7311C
:102E60006B01C42FD22FFC0185818823A9F04093E8
:102E700032040E94D2059093310480933004C770CD
:102E800081E001C0880FCA95EAF70E945615CDB7B8
:102E9000DEB7E8E00C94133210913204141337C0FB
:102EA00080913004909131040E94B7057C01C601E5
:102EB0000E94070EE816F90650F5C0E2CD0F1D1767
:102EC000C1F080E2810F883048F4177081E0012E54
:102ED00001C0880F0A94EAF70E944F15C83048F4E1
:102EE00081E09D2F977001C0880F9A95EAF70E94A4
:102EF0005615802F0E946B16C83048F6D77081E0B7
:102F000001C0880FDA95EAF70E944F15C0CFC7704D
:102F100081E001C0880FCA95EAF7F6CFCF93DF931F
:102F2000EC010E94B60B9E01205E3109283031056C
:102F300010F0209741F40E9456158C2F0E94F9152D
:102F4000DF91CF9108950E944515F7CF90914304EA
:102F500092FB222720F9281779F080FB92F99093B1
:102F60004304609142047091430484E090E00E9425
:102F7000073382E00E94A10A089590E080E00E9459
:102F8000D332863E9E4F19F40E94F90E089580E0D8
:102F90000895A7E0B0E0EFECF7E10C94ED317C018F
:102FA000DC0114968C91882309F486C161E0C70185
:102FB0000E94CE0E8C01F7018581882309F1809152
:102FC0003504909136040097D9F008171907C1F01D
:102FD000FEE08F9FC0011124FC01EB5DFC4F2081BE
:102FE00024602083805E9C4FDC010D931C930E9423
:102FF00005121092330461E0C7010E94CE0E8C01CD
:10300000F7018581882309F4B1C0C801975780383A
:10301000910508F0DEC0D02EFFE0F01708F43CC1A7
:103020008FEF93E00E94C532811136C109E013E0B1
:10303000D11036C019821A821B821C8299249A945C
:1030400068013FEFC31AD30AC8010E94C5328983C1
:103050001A82882309F420C1813009F081C0580107
:1030600042E0A40EB11CC6010E94C532C82E8A835C
:10307000882309F411C1C5010E94C532D82E8FEFF3
:103080008C0D8330D8F4580153E0A50EB11CDB82BF
:10309000DD2021F0CE0101960E9489168501D0CF56
:1030A000011524E0120709F4F7C0C8010E94C532D7
:1030B000811101C0DA940F5F1F4FBACF8BEF8C0DD7
:1030C000833030F5C8010396DB825C01DD2031F3EB
:1030D0005801A4E0AA0EB11C0E94C5328C8388233B
:1030E000E9F28B819C818130BFEF9B0710F0982F14
:1030F0008827E6E0CE1631F0F7E0CF1631F00E94D7
:10310000FB22CCCF0E94D622C9CF0E945022C6CF2C
:1031100024E0C212C3CF580134E0A30EB11CC80191
:1031200003960E94C532DD2009F4B6C0882309F455
:10313000B3C08150990B989E9001999E300D112437
:103140004D2D4150550BCA01820F931F019708F472
:10315000A5CFAFE9BFE01197F1F700C00000F6CFAF
:10316000CE0101960E948916560198CF6801F7E5B5
:10317000DF1A2FEFC216D10409F058F566E173E0AB
:103180008C2D0E94F30D892B21F58EE08C9DF00192
:103190008D9DF00D1124E05EFC4F8281813009F09D
:1031A0003FC08091160390911703892B91F0809175
:1031B000180390911903892B61F080911A03909163
:1031C0001B0320911C0330911D03822B932B892B11
:1031D00079F1013D1105E9F10034EEE71E0709F42C
:1031E00047C0D70115965C90552009F476C00E357E
:1031F000BCE71B0709F46DC00F35ECE71E0751F063
:103200000D35FCE71F0709F068C080910001882395
:1032100009F45FC01092000180E00E9493153CC049
:103220008230B9F680911A0390911B03892B89F2A1
:103230002EE02C9DC0012D9D900D1124FC01EB5D15
:10324000FC4F20812E7F2083805E9C4F0E940512C0
:10325000C8CF8091B101882321F2D70115968C91B6
:10326000882309F4BECF1092B1011092B001B9CFFA
:103270008091B00181112AC0F7018581882331F145
:1032800011E01093B0018091B1018823C9F081ED64
:103290000E9460151092B1018091D101877061F098
:1032A000D70115968C91882339F08091430482FFD1
:1032B00003C082E00E94A10A2796E2E10C94093241
:1032C00081ED0E94F9151093B101E6CF1092B00183
:1032D000E3CF81E080930001DFCF8091000188235C
:1032E00009F4EBC4480120EE821A91084090F401E1
:1032F0008091CE01482A80913404482A38E0831610
:10330000910408F086C098012770332781E090E08F
:1033100001C0880F2A95EAF7552009F477C0482A9A
:10332000D7018D919C910E94060A21E030E039017D
:1033300002C0660C771C8A95E2F7E0912E04F091AA
:103340002F04FF83EE832090B2013090B3011D82E1
:103350002D81E22FF0E0EE0FFF1FEF56FC4FC080F3
:10336000D180C114D10409F40CC5411005C0D601A7
:1033700012968C91811189C0F601838190E086219B
:103380009721892B09F481C08085982F977009F4C3
:1033900087E0F8E08F16910408F055C0552009F435
:1033A0004EC086958170882309F46FC0D601AD9018
:1033B000BC900A151B0519F4552009F466C0EE816E
:1033C000FF81CE16DF0609F460C0D6011D96ED918F
:1033D000FC91309721F08081882309F456C0642D38
:1033E000C6010E94AE06882309F44FC00A151B05CA
:1033F00009F025C50115110509F426C5511026C58A
:10340000A214B30409F041C0512C20C58095482274
:1034100087CF552009F49EC41093B3010093B201E5
:103420000E94C605609325047093260480932704A8
:103430009093280410922D0410922C0471CF82FBDB
:10344000882780F9B0CF552001F18170ACCF0E9460
:1034500060151BC50497813A910558F46A2D80E9DF
:1034600091E00E94DE05552009F427C40E947711DF
:1034700013CF0E9477118FE39CE90197F1F700C009
:1034800000008A2D0E94F915EECF9D819F5F9D83DC
:103490005FCFFC01208131810217130709F006C4B8
:1034A000511006C410922B0480E00E94931505C4AD
:1034B000902F812F4AC4F901858181FF76C4C9010B
:1034C0000E94EB1172C406E221EE41EE6AE17CE754
:1034D000C7010E942A17E0CE07E225EE45EE6BE118
:1034E0007CE7F6CF06E221EE40EE68E17CE7F0CF24
:1034F00007E225EE44EE69E17CE7EACF06E221EE41
:1035000042EE6CE17CE7E4CF07E225EE46EE6DE1AA
:103510007CE7DECF08E221E045EE6EE17CE7D8CF24
:103520008091420481608093420495C0809143045D
:103530008860809343048FC0809142048260F3CFFF
:10354000809142048460EFCF809142048860EBCF89
:10355000809143048160EDCF809143048260E9CF84
:10356000809142048061DFCF809142048062DBCF92
:10357000809142048064D7CF0E943012809142042F
:103580008068D1CF809142048C60CDCF809143047C
:103590008360CFCF809142048E7FC5CF809143045A
:1035A000877FC7CF809142048D7FBDCF8091420439
:1035B0008B7FB9CF80914204877FB5CF8091430440
:1035C0008E7FB7CF809143048D7FB3CF809142042B
:1035D0008F7EA9CF809142048F7DA5CF8091420438
:1035E0008F7BA1CF0E943012809142048F779BCFB6
:1035F00080914204837F97CF809143048C7F99CF41
:103600008091420482FB992790F921E0922790FB58
:1036100082F990FB83F987CF80914304982F90958E
:1036200091708E7F892B90FB81F983CF909142041A
:10363000892F8F7B96FF806476CF0E943012909105
:103640004204892F97FB87F980586DCF61E08EE0A7
:1036500090E00E94E932609142047091430484E05A
:1036600090E00E9407330E94301216CE60E0EFCF48
:1036700090914204892F8F7E94FF806154CF909166
:103680004204892F8E7F90FF81604DCF909143043B
:10369000892F877F93FF88604CCF85E3CDC38091CE
:1036A000040380FF1CC0282F2E7F20930403309139
:1036B0000503409106035091070360910803709140
:1036C000090380910A0390910B030E949E0F809141
:1036D00061028160809361020E94540CDDCD8160A3
:1036E0008093040361E086950E942211D5CD4BE4BE
:1036F00051E165E571E10E94F306CECD45E551E16A
:103700006BE471E1F8CF4AED50E164EE70E1F3CF84
:1037100044EE50E16AED70E1EECF40EC50E16DEC2B
:1037200070E1E9CF4DEC50E160EC70E1E4CF46EAA6
:1037300050E163EB70E1DFCF43EB50E166EA70E10B
:10374000DACF4EEE50E168E071E1D5CF48E051E1CB
:103750006EEE70E1D0CF61E081E0C6CF0737BCE705
:103760001B0709F45FC00837ECE71E0709F460C0C7
:10377000F701858100811181882309F489C0C8017E
:103780000E946F0ED82E682FC8010E943A0AB80115
:103790008D2D0E94520E0E9474088C01882ED70134
:1037A0001596CC9015971696BC90B2943FE0B32234
:1037B0008091D1018770F1F0AC2CCC20E1F0812F09
:1037C000807F803451F080E2800F883098F0B11013
:1037D00004C0812F807E803269F08091430482FF93
:1037E00009C082E00E94A10A8091D1018770AA24B9
:1037F000A3948111A12C912E92942FE09222BBE0F0
:10380000B91508F4A6C0E92DF0E0EF5CFC4C0C946F
:103810004C3281E00E94B80A43E062E081E00E94FD
:10382000740A3ACD81E00E94940AF6CF82E0F2CF8A
:1038300082E0F9CF0B355CE7150741F10C358CE7D9
:103840001807D1F00A351C4709F092CF81E01BC060
:103850000E943012AFEFB4E3ECE0A150B040E04082
:10386000E1F700C000000E94A6056FEF7FEF90E037
:1038700080E00E94073365C38091430482FB882760
:1038800080F991E089270E94A61772CF80E0FBCFD4
:10389000C8010E94060AD82E7ACFE12FEF70DE2EE3
:1038A000107F19F0D29490EFD922CC20B9F0DD200E
:1038B00069F080E2800F883010F0811009C080919B
:1038C0003404D82AD09234040E947711802F3FC04C
:1038D00080913304D82AD0923304F6CF802F0E94EF
:1038E0006015DD20B1F1005E8D2D083010F08110E3
:1038F00003C00E94B90902C00E94B2090E94771158
:1039000028C0F12FFF70DF2E107F103219F0D294F3
:1039100080EFD822882059F021E0821609F487C070
:10392000CC2009F493C0BB2009F441C0CFCF8091D3
:10393000430482FD38C0CC2079F1DD2039F080913C
:103940003404D82AD09234040E94771180E00E9477
:10395000F915A92DA850BB0B149710F40E94F50C73
:10396000AA20A9F08091D10180FD11C0F701158234
:103970008695869586950E94B80AC7010E94C91748
:103980008091D1018695869586950E94940A60E083
:10399000C7010E94CE0E90CC80E00E946015DD2011
:1039A000C1F28D2DA6CFCC2069F1B11004C08D2DB0
:1039B0000E945615CECF31E0B31210C01091F40121
:1039C0008D2D8123D81629F20E94D2059093F30100
:1039D0008093F201D12AD092F401BBCF45E0B4121A
:1039E000B8CF8D2D0E9456158D2D0E949D09809176
:1039F000CE019D2D9823D91609F4ABCFD82AD092A9
:103A0000CE01A7CFB1100AC08D2D0E944F158D2D6C
:103A10000E949D098D2D0E94C7099BCF51E0B512D0
:103A200098CF809134048D2109F493CFEDCFCC2031
:103A300029F085E08B1508F48CCFB9CF94E09B1565
:103A400008F487CF8D2D0E944F1583CFBB20D1F373
:103A5000A9E38A1209C0BFEFE7EEF3E0B150E040FE
:103A6000F040E1F700C00000802F0E94601571CF88
:103A7000812F86958695837061F0813009F069CF3A
:103A8000C8019370C11002C080E090E00E9413064C
:103A900060CFC8019370C11002C080E090E00E9426
:103AA000380657CF6C2D802F0E94DE0A52CF812F0F
:103AB000837089F5C1104DCF402F429546954770D0
:103AC000440F440F802F8F70042E01C0880F0A947A
:103AD000EAF7202F207104FF07C02FE030E001C07B
:103AE000220F4A95EAF72095169516951370123015
:103AF00069F050F43091F501113029F0822B8323C5
:103B00000E94DB0A26CF832B822BFACF282B8091B1
:103B1000F5018227F5CF8695CC2011F0812F817099
:103B2000882309F416CF402F429546954770440FDD
:103B3000440F802F8F70042E01C0880F0A94EAF77B
:103B4000202F207104FF07C02FE030E001C0220FBA
:103B50004A95EAF72095169516951370123069F07C
:103B600050F430913602113029F0822B83230E94C9
:103B7000710AEFCE832B822BFACF282B809136024D
:103B80008227F5CF1F70CC2029F0812F0E94B80A20
:103B9000802F0ECF802F0E944F15812F0E94940AF4
:103BA000D8CE802F22EF8216B1F1281570F030EFB9
:103BB0008316D1F041EF841691F0CC2009F466C051
:103BC000B11084CE812F8F712AC053EF851651F129
:103BD00094EF8912F2CF8091430482FD2FC0812F90
:103BE0008F71CC20D9F21BC0CC2081F0A4E0AB15A2
:103BF00008F4AFCE1F7181E090E0012E01C0880F64
:103C00000A94EAF7909136028927B1CFB5E0BB1547
:103C100008F49FCEEFCF812F8F71C110BFCF0E94CC
:103C2000B80A97CE80E0CC2009F4A1CF1F7181E0C3
:103C3000012E01C0880F0A94EAF799CFCC20C9F071
:103C40008091D1018770843041F40E94C009812F96
:103C50008F710E94940AA12C7CCEE4E0EB15D8F37E
:103C60001F71812F0E94B80A63E0812F0E94C40A4D
:103C7000F2CFF4E0FB1530F40E94C00964E0812F1C
:103C80008F71F4CF81E00E94A10AE5CFBB2059F0EB
:103C9000893309F0E9CE2FEF37EE43E02150304071
:103CA0004040E1F7DFCE812F8F7178CF552029F08A
:103CB000DC0118968C9185FFF7CBC80197558F3F93
:103CC000910511F008F08FC05801BB24BEE00B9F96
:103CD000F00111249F01205E3C4F6901D701159628
:103CE0008C91EB5DFC4F908180FB90F99083882351
:103CF00009F4E1CB0E94D2059093420280934102E5
:103D0000F60182818F5F8283809133049091340425
:103D1000892B83838091F40184830680F781E02DD1
:103D2000309731F0D6011C966D917C91C6010995B2
:103D30008EE08A9DF0018B9DF00D1124E05EFC4F1A
:103D4000858181FFB5CB90E080E09093350480932E
:103D500036042BC08091B2019091B3010817190766
:103D600081F41092B3011092B201109225041092C6
:103D70002604109227041092280410922D04109209
:103D80002C0480912E0490912F04009709F495CF74
:103D9000A8E08A16910408F07CCB642D0E94AE0640
:103DA000811103C081E00E949315D70115968C9173
:103DB0008823C1F110923204C80190578397E8F428
:103DC00084E090E00E94D3329093430480934204B5
:103DD000F801E150F047E232F10508F0A1CBE35CD5
:103DE000FC4C0C944C32F801E851FC47E730F105EB
:103DF000E0F6E15AFC4C0C944C320631BCE71B0750
:103E000009F085C0809134048A7A91E009F490E049
:103E10009093B40169E2811165E380E991E00E9429
:103E2000DE0524CB0631ECE71E0709F062C0809165
:103E3000B401811132CC89E20E94D10917CBA114BF
:103E4000B10409F0DDCA512CB12CA12C80E00E94F4
:103E50009315D0922F04C0922E0481E080932B04FE
:103E6000D60115968C918093290451100EC0AB2871
:103E700061F0F601808191819C0124503109213A41
:103E8000310508F0E4CA0E94D109D6011696AD901A
:103E9000BC90C5019A9581159F4110F4E0EEBE22B9
:103EA00077247394C50101978F339E4708F0712CD6
:103EB000D6011996ED91FC911A97309731F01B9627
:103EC0006D917C9181E009957822772079F0F60157
:103ED000868197810E94B60B80932A04C501F8E081
:103EE0008F16910408F0B6CA0E945D060E947711F1
:103EF000BACA809134048272F801E052F847E53181
:103F0000F10508F02BCCEA59FC4C0C944C320737E5
:103F1000FCE71F0709F47DCC08372CE7120709F4EA
:103F200085CC0330FCE71F0709F49FCC08F082CC56
:103F300001153CE7130709F48BCC01301C4709F04D
:103F400017CC0E942815B0E0A0E0E9EAFFE10C944C
:103F5000F8318091CD01807F09F051C08091CC0172
:103F6000882309F44CC0E091AC0487E0D82E8091FE
:103F700073048E1709F443C00E2F10E0ED9DF0017D
:103F80001124EC58FB4F84818823F1F1D09EE0018D
:103F9000D19ED00D1124FE01EC58FB4F91818091F0
:103FA000C801981331C090818091C70198132CC02B
:103FB0008581811129C0E280F3808091C9019091AF
:103FC000CA01E81AF90A60E087EC91E00E94CE0E7F
:103FD0000E94070EE816F906B8F48091CD018F70A3
:103FE00080618093CD01C658DB4F88818F708061DE
:103FF000888387EC91E00E94C9170E94FC09CDB725
:10400000DEB7E7E00C941432F8013196E770AFCFD9
:10401000A4E1B0E0EEE0F0E20C94F0318C0186E037
:10402000F801DE011F9601900D928A95E1F7F801E3
:10403000F480E58087EC882E81E0982E8091CB017A
:1040400081112AC0F11003C0FF24F3941CC0EE209C
:10405000F9F0C8010E94AB0EF82E8823C9F087E062
:10406000F801A7ECB1E001900D928A95E1F78091FB
:10407000CB01813031F48091C7019091C8010E9439
:104080009E0E0E94A31F8F2D6496EFE00C940C32BD
:10409000C8010E94C917D8CFC280D380B090CC018C
:1040A0008091C9019091CA013601681A790ABB2032
:1040B00009F4F9C05080A18060E087EC91E00E9493
:1040C000CE0E0E94070E6816790608F0A5C0FF20E4
:1040D00009F4BACF8091CD01382F307F2091C801EB
:1040E000F8019181311158C0FE2C291314C0209180
:1040F000C701908129130FC0E11047C08F70806104
:104100008093CD0187EC91E00E94C9178091CD0189
:10411000F8018683B8CFE11038C06A2D852D0E9442
:1041200013046A2D852D0E941304E82E8111ABCF54
:104130005F86A88A8F8598890E949E0E292F2295D6
:104140002F70243058F49F70223088F0992399F012
:10415000F8019681907F79F4FE2C95CF2A5F2F701D
:10416000223068F0C8010E94C917EB2CF5CF9923C3
:1041700011F0882389F3805E883070F3F3CF803F9D
:1041800058F3815F833070F7E7CF8091CD01816074
:104190008093CD01F12C77CF291315C02091C70151
:1041A0009081291310C0E1100EC08683C8010E94BF
:1041B000C91787E0F801A7ECB1E001900D928A954C
:1041C000E1F7FB2C60CFC8010E94AB0E882309F4F5
:1041D0005FCFEE2009F45CCF8091CD01803288F072
:1041E0002091C7013091C80139872887DB86CA86AC
:1041F0009091CB019C871D868E87CE0108960E94E8
:10420000C91787E0F801A7ECB1E001900D928A95FB
:10421000E1F70E94A31F18CF8091CD01982F907FC6
:1042200051F487EC91E00E94C91787E0F4011192E4
:104230008A95E9F7AFCFFF2009F406CF2091C80196
:10424000F8019181291311C02091C7019081291390
:104250000CC0E1100AC08683C8010E94C91787E01C
:10426000F40111928A95E9F7ACCFC8010E94AB0E18
:10427000882309F40DCFEE2009F40ACF8091CD01F7
:10428000803208F4BECF2091C7013091C8013A8333
:104290002983DC82CB829091CB019D831E828F8308
:1042A000CE010196ACCF60E087EC91E00E94CE0E8B
:1042B0000E94070E6816790608F0B7CFFF2009F4B0
:1042C000C3CEFE2CEE2009F4E3CE9091C801F80194
:1042D000818198132DC09091C7018081981328C0C7
:1042E0008091C9019091CA01C81AD90AF4EBCF167E
:1042F000D104A8F49091CD0190FD11C0907F79F088
:104300008091CD01F8018683903F31F0982F907F06
:10431000905F8F70892B8683C8010E94C91787E040
:10432000F801A7ECB1E001900D928A95E1F7ABCED0
:10433000C8010E94AB0E811164CF8091CD018160D4
:104340008093CD01C8010E94C9179DCEABE1B0E0BA
:10435000ECEAF1E20C94FC314E8B5F8B688F798F25
:104360008A8F9B8F9111109233041D8A86E0FE0183
:104370007696DE011F9601900D928A95E1F7809165
:10438000430482FF1CC00E94D2052091CF013091CE
:10439000D001821B930B8838934120F08091D1018A
:1043A00082FF7AC00E94D2052091F2013091F30180
:1043B000821B930B8838934110F00E9492098B89DD
:1043C000882329F061E0CE010F960E94CE0E87E08F
:1043D000FE013F96DE01189601900D928A95E1F755
:1043E000CE0108960E94082081110CC087E0FE01D2
:1043F0003896DE01119601900D928A95E1F78C8531
:1044000081110BC017E08091AC0490917304891363
:1044100031C06B96E3E00C9418322091730430E0C5
:10442000C9010196877099274091AC044817190675
:1044300099F097E0929FD001939FB00D1124AC5852
:10444000BB4FFE01319601900D929A95E1F7809352
:1044500073040E94FC09D6CF0E943012109273049C
:104460001092AC0487E0E7ECF1E0DF011D928A9541
:10447000E9F7C8CF819FC00111248C589B4F0E943F
:104480000820882331F28091AC0490E00196877077
:1044900099278093AC04B7CF82E00E94A10A82CF13
:1044A000A6E0B0E0E6E5F2E20C94FB318C019093DB
:1044B0000D0380930C03011580E21807C0F4802FD0
:1044C0000E946015C8010E94B60B9801205E310958
:1044D0002830310518F00115110531F40E944F15EF
:1044E0002696E4E00C9417320E943E15F9CF80EF37
:1044F00089838A830E94D2058160682F9C838B8385
:1045000049815A817C8181E090E00E94A621E8CF18
:104510000F931F93CF93DF938C01EB0166E173E060
:104520008C2F0E94F30D892B71F4DD27C25FDC4FC5
:104530008881F801128218828330F1F048F48130CA
:1045400059F0823081F0DF91CF911F910F91089542
:104550008430B9F08530B9F7809116039091170334
:10456000009789F306C08091180390911903009772
:1045700099F30E945022E7CF80911A0390911B0378
:10458000F6CF80911C0390911D03009791F7209125
:104590001603309117038091180390911903211588
:1045A0003105F1F2009729F7C901E3CFA6E0B0E0A9
:1045B000ECEDF2E20C94FD3190930D0380930C032B
:1045C000811520E2920730F40E948E172696E2E0D1
:1045D0000C94193280EF89838A830E94D20581600E
:1045E000682F9C838B8349815A817C8181E091E093
:1045F0000E94A621EBCFCF93DF93EC010E94D6223D
:10460000CE010E945022DF91CF9108950F931F9306
:10461000CF93DF938C01862F66E173E00E94F30D48
:10462000892BB1F4C0911603D0911703209781F024
:10463000F8018281833051F4CE010E94FB22CE0129
:104640000E94FB22CE010E94FB2202C08430D0F7E0
:10465000DF91CF911F910F9108950F931F93CF93E7
:10466000DF938C01EB0166E173E08C2F0E94F30D68
:10467000892B09F05CC0FE01FF27D80112968C91AE
:104680001297E25FFC4F8130B9F415969C9192FF2E
:1046900002C080830AC090FFFCCF82E080838091BB
:1046A0001803909119030097B9F480911603909123
:1046B00017030097E1F110C08230B9F515968C917F
:1046C00082FD28C080FD0BC083E0808380911A03A7
:1046D00090911B03009701F10E94D62228C084E02C
:1046E000808380911C0390911D030097A9F780910E
:1046F0001603909117030097F9F00E94FB22809116
:10470000180390911903009739F78091160390913F
:104710001703E2CF85E08083809116039091170301
:10472000009729F00E94FB22F0CF86E08083DF9182
:10473000CF911F910F9108958091180390911903C3
:10474000B8CFA6E0B0E0E7EAF3E20C94FB310E94B8
:10475000D2058C018091F6019091F70180179107A5
:1047600081F019821A820E94D205682F49815A81EC
:10477000792F80E090E00E94A6211093F70100932A
:10478000F6012696E4E00C941732A4E0B0E0EBECDE
:10479000F3E20C94FC3140910B0250910C026091B9
:1047A0000D0270910E022FB7F89480913E04909103
:1047B0003F04A0914004B09141042FBF841B950B8E
:1047C000A60BB70B11E084369105A105B10570F178
:1047D0000E94060D6E5F7F4F8F4F9F4F69837A83D4
:1047E0008B839C838091120190911301815F9D4F77
:1047F0004091110150E04530510510F044E050E087
:10480000BE016F5F7F4F0E94A53282E090E00E9460
:104810007731182F882351F00E94C60560930B0250
:1048200070930C0280930D0290930E02812F2496B8
:10483000E3E00C941832ABE0B0E0E1E2F4E20C9477
:10484000FD3188E0E4E0F3E0DE01119601900D9285
:104850008A95E1F780915F0290916002A0916102D8
:1048600089879A87AB872B85409123025091240238
:1048700060912502709126023FB7F89480913E0422
:1048800090913F04A0914004B09141043FBF841B2C
:10489000950BA60BB70B84369105A105B10510F455
:1048A000222319F180911A0190911B01815F9D4F84
:1048B0004091190150E04C30510510F04BE050E0B0
:1048C000BE016F5F7F4F0E94A53283E090E00E949F
:1048D0007731882369F00E94C605609323027093A4
:1048E000240280932502909326021092610281E0B7
:1048F0002B96E2E00C941932EF92FF921F93CF9324
:10490000DF9300D000D00F92CDB7DEB77B0190E0EF
:1049100080E00E947731182F882309F487C04091E6
:10492000040150E04115510511F041E050E0609163
:10493000050170910601615F7D4FCE0105960E94D1
:10494000A5324091070250910802609109027091CE
:104950000A022FB7F89480913E0490913F04A091F1
:104960004004B09141042FBF841B950BA60BB70BDD
:1049700084369105A105B10540F480E192E00E94E2
:1049800032049D81891709F451C081E090E00E94B2
:10499000773181111AC010E08091030290910402D6
:1049A000A0910502B0910602F70180839183A28352
:1049B000B383812F0F900F900F900F900F90DF9186
:1049C000CF911F91FF90EF90089540910C0150E01E
:1049D0004530510510F044E050E060910D017091B8
:1049E0000E01615F7D4FCE0101960E94A53280E1EC
:1049F00092E00E9432049D818913CDCF0E94C605AA
:104A000060930702709308028093090290930A0250
:104A100089819A81AB81BC818093030290930402C7
:104A2000A0930502B093060211E0B6CF8091100268
:104A300090911102A0911202B091130289839A837E
:104A4000AB83BC831111E4CFA7CFA3E1B0E0EBE2CD
:104A5000F5E20C94F2318E01045F1F4F88E0D8011B
:104A60001D928A95E9F783E7C82E81E0D82EF12CB4
:104A7000E12CAA24A394B12C2DE7822E21E0922EC2
:104A8000F60181916F018F3F09F442C0F894E82F3D
:104A9000E295EF70F0E021A18F70A50102C0440FF4
:104AA000551F8A95E2F7CA01922F982B91A392A1E4
:104AB0008095892382A3789400C0E7E7F1E0712C08
:104AC00031E021912F3F09F46BC0A22FA295AF7066
:104AD000B0E090968C9190E02F7002C095958795EC
:104AE0002A95E2F780FD5CC0832F782A330F8E165B
:104AF0009F0639F7F601319780818F3F11F00E94B0
:104B0000780750EA5A95F1F7F801EE0DFF1D708213
:104B10008FEFE81AF80AA4E0EA16F10409F0B0CF22
:104B200048E050E0B8018CE292E00E949832009791
:104B300041F028E0F801ACE2B2E001900D922A9534
:104B4000E1F700913502892B69F181E08093FA0148
:104B50000E94D2059093F9018093F8018091F801A9
:104B60009091F9010E94B705059700F110E0085BEC
:104B70001D4F44E050E06CE272E0C8010E949832A0
:104B8000F12C892B51F084E0ECE2F2E0D8010190A5
:104B90000D928A95E1F7FF24F3941092FA0107C071
:104BA00080E0A3CF8091FA018111D8CFF12C0E942F
:104BB000D20CE82EE0913502882309F47DC01982D9
:104BC0001A821B821C820E2F10E0085B1D4F809101
:104BD00027028A30D8F54CE754E2BE016F5F7F4F61
:104BE000C8010E949F0C882309F455C045EC53E28C
:104BF000BE016F5F7F4FC8010E949F0C882309F49C
:104C00004AC04BE154E2BE016F5F7F4FC8010E9472
:104C10009F0C882309F43FC0109227028091340230
:104C200090E044E050E0BE016F5F7F4F885B9D4F96
:104C30000E94983221E020930102892BF1F4E12CAB
:104C40008E2D8F296396EDE00C940E328091FB013E
:104C50009091FC010E94B705843F914008F0BBCFC2
:104C600080910102882359F384E0FE013196DF012F
:104C70001D928A95E9F710920102E0913402F0E06A
:104C8000E85BFD4F89819A81AB81BC8180839183F0
:104C9000A283B383D5CF809127028F3F31F08F5FFE
:104CA000809327028A3008F4B9CF0E94D2059093EE
:104CB000FC018093FB01D4CFF0E0E85BFD4F84E082
:104CC000A0E1B2E001900D928A95E1F780E192E0D7
:104CD0000E94320480930F0280901402909015027B
:104CE000A0901602B09017028091FD019091FE01F4
:104CF000A091FF01B091000288169906AA06BB0692
:104D0000D1F08092FD019092FE01A092FF01B0923D
:104D100000020E94D20C81110EC00E94C605861AA4
:104D2000970AA80AB90A8092280290922902A092B2
:104D30002A02B0922B028BE0E8E1F2E0DE0111964C
:104D400001900D928A95E1F7809118028695009165
:104D50001902D0901A02C0901B02109122021092E8
:104D60002202112309F46CCF10FF0BC0298190910E
:104D7000040320FF0FC091609093040360E00E9441
:104D8000221111FF5DCF20E04C2D6D2D802F0E9450
:104D9000C40F56CF9E7F909304038091610281607F
:104DA000809361020E94540CECCFA8E0B0E0EBEDE0
:104DB000F6E20C94FD3166EE7EEF90E080E00E941A
:104DC000073360E082E090E00E94E93260E083E037
:104DD00090E00E94E9321092F50160E074E184E015
:104DE00090E00E94073360E086E090E00E94E932A4
:104DF0006FEF87E090E00E94E93240E050E0BA01B6
:104E000088E090E00E94FB3260E084E290E00E9443
:104E1000E93260E087E190E00E94E93260E08CE0F6
:104E200090E00E94E93260E08DE090E00E94E9327B
:104E300019821A821B821C821D821E821F82188682
:104E400048E050E068E170E0CE0101960E94D9325E
:104E500040E050E0BA0180E290E00E94FB3280E046
:104E60000E94560D0E94E30D40E050E0BA018FE031
:104E700090E00E94FB3240E050E0BA0183E190E014
:104E80000E94FB322896E2E00C9419321F920F9296
:104E90000FB60F9211242F933F934F935F936F930D
:104EA0007F938F939F93AF93BF93CF93DF93EF93B2
:104EB000FF93D091E900DF708091EC00C82FC170A2
:104EC00080FDC0E81092E9008091F000877F809318
:104ED000F00078940E945F121092E9008091F00037
:104EE00088608093F000CD2BCF70C093E900FF91D4
:104EF000EF91DF91CF91BF91AF919F918F917F9172
:104F00006F915F914F913F912F910F900FBE0F9036
:104F10001F9018951F920F920FB60F9211242F9386
:104F20003F934F935F936F937F938F939F93AF9331
:104F3000BF93EF93FF938091E10082FF09C08091BE
:104F4000E20082FF05C08091E1008B7F8093E10049
:104F50008091DA0080FF24C08091D80080FF20C0BB
:104F60008091DA008E7F8093DA008091D90080FFF3
:104F70009DC080E189BD82E189BD09B400FEFDCFFD
:104F800081E08093690480914404811109C00E94EA
:104F900049040E94EA048091E20084608093E20068
:104FA0008091E10080FF17C08091E20080FF13C074
:104FB0008091E2008E7F8093E2008091E200806128
:104FC0008093E2008091D80080628093D80019BC61
:104FD00085E0809369048091E10084FF2BC080917B
:104FE000E20084FF27C080E189BD82E189BD89B5E7
:104FF000982F917080FFFBCF8091D8008F7D809398
:10500000D8008091E1008F7E8093E1008091E200E2
:105010008F7E8093E2008091E20081608093E200C5
:1050200080916A04882309F447C084E0809369046E
:10503000809169048091E10083FF27C08091E200A4
:1050400083FF23C08091E100877F8093E10082E0AD
:105050008093690410926A048091E1008E7F8093AE
:10506000E1008091E2008E7F8093E2008091E20077
:1050700080618093E20042E060E080E00E94B8043A
:105080008091F00088608093F000FF91EF91BF91D4
:10509000AF919F918F917F916F915F914F913F91D0
:1050A0002F910F900FBE0F901F90189519BC109262
:1050B00069041092440474CF8091E30087FD93E06B
:1050C00090936904B5CF78941F921FB61F92112454
:1050D0008F939F93AF93BF9380913E0490913F0431
:1050E000A0914004B09141040196A11DB11D80938F
:1050F0003E0490933F04A0934004B0934104BF91B9
:10510000AF919F918F911F901FBE1F9018951F9276
:105110001FB61F9211248F939F93AF93BF938091DB
:105120003D04811113C080913E0490913F04A091F1
:105130004004B09141044196A11DB11D80933E04ED
:1051400090933F04A0934004B0934104BF91AF916A
:105150009F918F911F901FBE1F901895CDB7DEB7FE
:10516000E1970FB6F894DEBF0FBECDBF85B780685C
:1051700085BF85B7806885BF84B7877F84BF0FB63A
:10518000F894A895809160008861809360001092E7
:1051900060000FBE80E890E00FB6F8948093610045
:1051A000909361000FBE86E797E090938F01809304
:1051B0008E010E94CE060E94120F0E9449040E9496
:1051C000EA048091E20084608093E2007894809108
:1051D00069048823A1F01091E9001F709091EC0000
:1051E000892F817090FD80E8182B1092E900809142
:1051F000E80083FD0E945F121F701093E90082E0B7
:1052000084BD93E095BD9AEF97BD80936E00109298
:1052100028021092290210922A0210922B020E9458
:10522000F90E811102C00E94E30D0E94D20C8093FE
:10523000210180912101882309F475C010922A016F
:105240008BE180932B010E94D20C81110E948B3044
:10525000809121018091210194E0811190E090934F
:10526000350284E0891B8093340284E90E94780728
:1052700086E60E94780787E90E94780786EC0E94FC
:10528000780707E711E08DE7E82E81E0F82ED801D6
:105290008D918D018F3F11F00E947807E016F10685
:1052A000B1F788E0E8E4F2E0DF01282F1D922A95AB
:1052B000E9F7ECE2F2E0DF011D928A95E9F70E943E
:1052C000BD17811102C00E94D52682E090E00E94A5
:1052D000C5328093380284E090E00E94D3329093EC
:1052E0004304809342040E942525BFEFE6E7F1E0E6
:1052F000B150E040F040E1F700C000000E942525D9
:105300000E94D20CE4E08111E0E0F0E0E85BFD4FA8
:10531000808181FF0CC06FEF7FEF90E080E00E9402
:1053200007330E94A6058BE180932A018ACF83E090
:1053300090E00E94C5320E94DB0A80913702811101
:1053400076C00E94BD17811104C00E94D5260E941C
:105350005A1188E090E00E94CD324B015C0184E25A
:1053600090E00E94C532282F30E040E050E060E03D
:1053700070E080E090E000E20E945932282939294B
:105380004A295B29209304033093050340930603C5
:1053900050930703609308037093090380930A03F3
:1053A00090930B03809161028360809361022E7F52
:1053B00089F50E945A1188E090E00E94CD326B017D
:1053C0007C0184E290E00E94C532282F30E040E06A
:1053D00050E060E070E080E090E00E945932B22F2F
:1053E000A32FF42FE52F5B0197018601BC29A12B88
:1053F000FE29E32BB0930403A0930503F093060367
:10540000E093070360930803B092090380930A03B3
:1054100090930B030E94F9068091040380FF04C05F
:1054200060E086950E94221181E0809337020E94FD
:10543000D20C811102C00E948E3082E291E09093E2
:105440003A048093390488E492E028E0280F29ABDD
:105450008E010F5F1F4F80916904F0E4DF2EA0E101
:10546000EA2EB2E1FB2E853009F489C00E94252581
:1054700079E3C72E72E0D72EE8E4EE2EE2E0FE2EAE
:1054800021E432E0D701F60191918D912E173F076B
:1054900009F47FC09817C1F30E94D20C482E68E42B
:1054A000A62E62E0B62E912C33243394D5018D9034
:1054B0005D01F60151906F01581429F15824712CA7
:1054C00066246394852D8621B1F04420A1F07BA64B
:1054D0009CA60E94D2059EA78DA73FA691E0882D8D
:1054E000862109F490E098AB4BA55CA56DA57EA53F
:1054F0008FA50E94A6217394660CF6E07F12E2CF7E
:10550000F60131978082939428E09212CFCF0E94C7
:10551000060D43C080916904843019F110923D0456
:1055200088E190E00FB6F894A895809360000FBED4
:10553000D092600083B7817F846083BF83B781602E
:1055400083BF7894889583B78E7F83BF0FB6F89416
:10555000A89580916000886180936000109260003F
:105560000FBE80916804882351F00E942525E8E44D
:10557000F2E0819181114DC599A99E13FACF8091D6
:105580006904853009F4C6CF0E9430120E94F50CE0
:105590006DCF981381CF0E94A1230E94D20C882343
:1055A00009F469C080912C0490912D04892B09F491
:1055B0003EC04091210450912204609123047091D7
:1055C00024042FB7F89480913E0490913F04A09159
:1055D0004004B09141042FBF841B950BA60BB70B61
:1055E00040911D0450911E0460911F04709120048D
:1055F00084179507A607B707D0F080912C049091E7
:105600002D040E948E1710922D0410922C041092DB
:105610002104109222041092230410922404109268
:105620001D0410921E0410921F0410922004A090DA
:105630003504B0903604A114B104E9F08091410220
:10564000909142020E94B7056C01C5010E94070EAD
:105650008C159D0580F4809135043EE0839FC00148
:105660001124FC01EB5DFC4F208122FD04C0805E13
:105670009C4F0E94051286E0E9E5F2E0D801019016
:105680000D928A95E1F710925B0210925C021092E3
:105690005D0210925E028B819C81892B09F44AC0C5
:1056A00080915702909158020E94B7059C019091F9
:1056B0005202992309F4D0C42E303105D8F19F3F0E
:1056C00019F09F5F90935202DB80DD2059F00E9419
:1056D00058079FEF1D140CF491E0899F802D112431
:1056E00080935B02DC80DD2059F00E9458079FEF19
:1056F0001D140CF491E0899F802D112480935C028D
:1057000030915B023323B1F020915C02222391F0AF
:1057100045EB3403C0011124992309F4C1C09093CF
:105720005B0245EB240390011124332309F4BCC030
:1057300030935C028D819E81892B09F44AC080914F
:105740005502909156020E94B7059C019091530218
:10575000992309F47CC421353105D8F19F3F19F014
:105760009F5F90935302DD80DD2059F00E94360741
:105770009FEF1D140CF491E0899F802D11248093DC
:105780005D02DE80DD2059F00E9436079FEF1D1478
:105790000CF491E0899F802D112480935E0230915A
:1057A0005D023323B1F020915E02222391F045EB9C
:1057B0003403C0011124992309F47AC090935D0247
:1057C00045EB240390011124332309F475C0309371
:1057D0005E0246E050E0B80189E592E00E9498320E
:1057E000892B61F480915B0290915C02892B9091EE
:1057F0005D02892B90915E02892B11F00E940F07A8
:1058000086E0F801A9E5B2E001900D928A95E1F7F2
:105810000E94F50C90914302891721F08093430276
:105820000E94C60580916904843009F014CE83E09B
:105830008093E9008091E80082FF0DCE8091E8001E
:1058400090E085FF0AC00E94680450E2A52EB12CAA
:105850006801882309F43DC091E08091E8008B77CE
:105860008093E800992309F4F6CDC0905002D090BF
:1058700051028981C114D104D1F18E3F09F0D1C008
:105880008A81833020F08550833008F0CAC0EA81D5
:10589000EE3008F0C6C0F0E0E558FC4C0C944C32F9
:1058A00081E080935B023DCF81E080935C0242CF38
:1058B00081E080935D0284CF81E080935E0289CF96
:1058C0008091F100D6018D936D01B1E0AB1AB10862
:1058D00019F28091E80085FDF3CF8091E8008B7785
:1058E0008093E8000E946804882399F3B5CF8B3039
:1058F00009F404C2D8F5853009F4BBC0D0F4823075
:1059000009F47EC030F4813009F476C08FEF8983CA
:1059100088C0833009F49EC08430C1F74C816B810C
:105920008A810E94230E9827892798279E838D833A
:1059300078C0873009F4ABC008F4A6C0883009F4F9
:10594000E0C0893019F7209104033091050340919C
:105950000603509107036091080370910903809139
:105960000A0390910B030E949E0F5BC0803109F4E3
:1059700018C1B0F58D3009F4E8C008F4E3C08E30EA
:1059800009F4E6C08F3011F680911B0490911C043D
:10599000892B09F446C0EC80F12C3DE1E316F104BB
:1059A00008F03FC0CA80DB80DC24CD24DC24580111
:1059B000E00EF11EC601875F9C4FEA14FB0489F1DB
:1059C00047EFC416D10428F4D50114966C910E94B7
:1059D000E932BFEFAB1ABB0AEFEFCE1ADE0AEACF0D
:1059E000823109F4E3C008F4DFC0833109F407C150
:1059F0008E3F09F08BCF4BCF1A8289E08B8311C089
:105A00008A81823009F41BC3833091F0813009F020
:105A10007DCF0E94C6050E9452326B837C838D83AA
:105A20009E8340E250E0B80182E00E94E70B13CD74
:105A300080911B0490911C04892B99F3FE013396ED
:105A400080E592E0D7012D917D0121938A179B0774
:105A5000C9F7E7CF8A81823009F058CF6B817C810A
:105A60008D819E810E94523288E290E00E94E9324C
:105A7000D8CF2D813E813227232732274C816B815D
:105A80008A810E94300DCDCF0E946F0DCACF8A81CE
:105A90008230B9F058F4813021F620E04B816091DA
:105AA0000603809105030E94C40FBBCF833029F108
:105AB000843009F0B6CF20E0409107036C818B81E0
:105AC000F2CF60E08B810E9422119B8180910403C0
:105AD00091110BC08E7F80930403809161028160DD
